S01B000054656D70657261747572655F68756D69646974792E7333377F
S11300000010002009080000050800000508000091
S113001005080000050800000508000005080000A8
S11300200508000005080000050800000508000098
S11300300508000005080000050800000508000088
S11300400508000005080000050800000508000078
S11300500508000005080000050800000508000068
S11300600508000005080000050800000508000058
S113007039060000450600000508000005080000D8
S11300800508000005080000050800000508000038
S11300900508000005080000050800000508000028
S11300A00508000005080000050800000508000018
S11300B00508000005080000C5360000050800001A
S11300C005080000050800000508000005080000F8
S11300D005080000050800000508000005080000E8
S11300E005080000050800000508000005080000D8
S11300F005080000050800000508000005080000C8
S113010005080000050800000508000010B5054CAE
S1130110237833B9044B13B10448AFF300800123AF
S1130120237010BDAC1000200000000090590000A6
S113013008B5034B1BB103490348AFF3008008BD66
S113014000000000B010002090590000A3F5803A90
S1130150704700BF174B002B08BF134B9D46FFF79A
S1130160F5FF00218B460F461348144A121A04F077
S113017013F80E4B002B00D098470D4B002B00D0EA
S113018098470020002104000D000D48002802D0EB
S11301900C48AFF3008003F0DBFF2000290000F0DF
S11301A07BF903F0C1FF00BF00000800000000005D
S11301B00000000000100020AC100020B811002046
S11301C0000000000000000000F0FAB800F042B99E
S11301D0014B01221A707047E81000200378407820
S11301E000F0FC0000EB03207D235843000C06388C
S11301F0704700000000000008B52DED028B437825
S1130200027803F0FC0303EB022003F021FD19A3A1
S1130210D3E9002303F0B0FA134B002203F0ACFA45
S11302200FA3D3E9002303F0D5FB03F0ABFD08EEE5
S1130230100A03F02FFD0D4B002203F0CDFBB5EEA9
S1130240C08AF1EE10FA48BF094B4FF0000258BFC4
S1130250002303F0BFFB03F075FDBDEC028B08BD6A
S1130260CDCCCCCCCC6C47400000F03E0000E03F4D
S11302700000F03FD7A3703D0AF765402DE9F04335
S113028089B0F523294E8DF80730294B0393054691
S11302900DF1070702233068049703A9ADF8143061
S11302A000F022FC18B12348B22100F06BFDDFF806
S11302B090804FF496744FF00209013C631C30683F
S11302C022D102A8FFF78AFF1B4B1860E0238DF8A8
S11302D007301A4B3068CDE903370123ADF81430E9
S11302E002AB069303A90223ADF81C3000F0FCFB1B
S11302F018B11048C82100F045FD02A8FFF77CFFA3
S1130300286009B0BDE8F08302AB03A9CDF80C80E6
S11303100493ADF8149000F0E7FB0028CDD1002C35
S1130320CFD10448C02100F02DFDCAE718100020E9
S113033080000100A4520000EC10002080000400A2
S11303408000020010B5064C2046FFF797FF236893
S1130350044A991E1160044A0233136010BD00BFA1
S1130360F0100020E4100020E010002008B50E4B2F
S11303701B6883420ADA0D4800F0C9FB0C4800F000
S1130380C9FB0C48BDE8084003F00EBF0A4B1B68CC
S1130390834207DD054800F0BDFB054800F0B7FBCC
S11303A00648EFE708BD00BFE01000207C530000C2
S11303B094530000B0520000E4100020C352000027
S11303C000B58BB04CF6FC135020ADF8083003F0A8
S11303D031F81A4B059302AB06930223ADF81C3097
S11303E003AB08930823ADF82430154B05A918680E
S11303F000F07AFB20B113484FF4907100F0C2FC76
S11304009DF80C30152B04D00E4840F2231100F057
S1130410B9FCFFF797FF4FF47A7002F0FFFF002357
S11304200146CDE90033084A084802F0D2FF0848E3
S113043003F0BAFE0BB05DF804FB00BF80000400BB
S113044018100020A4520000D1010000C8100020A0
S1130450D652000038B50B4D2B788BB10A4C204690
S1130460FFF70CFF094B0A48196803F09DFE216849
S1130470084803F099FE2068FFF778FF00232B70EB
S113048038BD00BFE8100020F4100020EC1000205C
S1130490025300000653000008B503F037F9FFF7D4
S11304A093FE03F040F9FFF791FEFAE7704700006E
S11304B008B50421112001F0E5F80948012100F0F4
S11304C001FD0848022101F0DDF80748022101F08E
S11304D0D9F80648022101F0D5F8002008BD00BF74
S11304E030253E0002001E00030020000500240009
S11304F008B5224B01225A64214BD3F8FC20214B2E
S1130500120E12D14AF6E851C3F89011D3F898119B
S113051041F00401C3F89811C3F89021D3F8642181
S113052042F40052C3F8642101E0012AF6D0164ACD
S1130530136A23F4441343F488131362A2F580422C
S1130540136843F48073136002F54052D2F8A43167
S113055043F4F843C2F8A43102F076FB00F0BEF88D
S113056002F004FB02F026FB02F05AFBFFF7A0FFA7
S113057002F012FBBDE8084000F0A0B800000E40F5
S11305800081E00F00300E4000400E4008B500F03E
S113059013F8BDE8084000F057B808B502F0A0FE13
S11305A000F048F8BDE8084002F0DABB7047704735
S11305B0704770477047704708B50448012100F040
S11305C081FCBDE80840024800F0B4B900350A00D7
S11305D00010002070B5134C0FCC92B00BAD0FC5BA
S11305E094E8070004F10C0685E807000FCE06AD79
S11305F00FC5203433682B6094E80F0002AD85E802
S11306000F00094B0093094806AB0BAA294602F0D8
S1130610EFFC044618B106487A2100F0B3FB2046EB
S113062012B070BD3C530000F8100020501100209F
S11306300E530000FFF7CEBF014B186802F088BDCF
S113064050110020FFF7F8BF08B5044800F05CFA29
S1130650BDE80840024800F057BA00BF7C530000D0
S113066094530000082808B517D00CDC022803DCDA
S1130670002803DC0E2008BD0428FBD1012304223A
S1130680092105200DE020280FD0402811D0102882
S1130690F0D1012304220E21F3E7012304220A21CD
S11306A0184601F0B1FD0020E5E7012304220821EA
S11306B0E7E7012304220A21E3E7000008B506481E
S11306C0012100F0FFFBFFF7F1FE0120FFF7CAFF55
S11306D0BDE8084000F018B800350A0001480121BF
S11306E000F0F0BB00350A00024B0222C3F8EC21F3
S11306F0704700BF00A00046024B0222C3F8EC2161
S1130700704700BF00A0004470B5384D384E0FCD7F
S113071086B06C460FC495E80300364D84E80300A8
S11307203548012100F0CEFB30460121012400F0C0
S1130730C9FB324B0293694628468DF80E4002F0FD
S1130740A5F92346042200210A2001F05DFD22467A
S1130750002302210A2001F057FD23460422072129
S1130760052001F051FD0422214623460A2001F010
S11307704BFD234BAB670B236B674FF4487002F0C0
S1130780DDFF1420FFF7B8FF02F0D8FF2320FFF7A6
S1130790ABFF02F0D3FFB9212846FFF7ADFF02F00B
S11307A0D5F9FFF7A1FF00231A4619460A2001F0E4
S11307B02BFD00231A4602210A2001F025FD2346C1
S11307C000220721052001F01FFD234600222146B7
S11307D00A2001F019FD284602F0BEF80021A9679D
S11307E03046696700F06EFB06B070BDAC53000084
S11307F0006204000008014000350A0000127A007B
S11308001E1D0012FEE7000008B500F069F8064B53
S11308100649074A8B4201D3FFF79CFC52F8040BAC
S113082043F8040BF6E700BF00100020AC100020D2
S1130830985900000048704700F04902104AD2F865
S1130840943003F00703023B032B13D8DFE803F0D3
S11308500C14020E0B4B1B68D2F80001C0F30420E9
S11308600130B3FBF0F07047074BF4E7074B1B680C
S11308705B08F1E7054BEEE74FF40043ECE700BFFC
S113088000400E4030100020281000202C100020C2
S113089008B5FFF7D3FF054BD3F80831C3F308239A
S11308A00133B0FBF3F0024B186008BD00400E406A
S11308B024100020014B1868704700BF2810002046
S11308C0054B1860054BD3F8943003F00703022B53
S11308D001D1FFF7DDBF70472810002000400E4013
S11308E0044B054A9A60D3F8882042F47002C3F896
S11308F08820704700ED00E0000000004FF4004045
S113090070474FF47A707047014B1868704700BF06
S11309103010002005490A681318054883428CBF2B
S11309204FF0FF320B601046704700BF34100020B8
S1130930000004202DE9FF47044618B962482C2121
S113094000F020FA6148012100F0BCFA2368604AF3
S113095093420BD002F58062934200F08B805A4898
S1130960422104B0BDE8F04700F00CBA5948DFF862
S11309707491012100F0A6FA6179207901230A22F9
S113098001F042FCE179A07901230A2201F03CFC48
S113099009264FF001083027257994F805A0002D89
S11309A06AD0012D6BD0022D6CD0032D6DD0042D97
S11309B00FD0052D6CD0AB1F012B0AD9082D6AD09E
S11309C0092D6AD00A2D04D1072323FA0AF3DA0782
S11309D004D44FF47971484600F0D4F93E4A7D437B
S11309E008FA0AF35351642002F0A8FE257994F81A
S11309F005A0002D54D0012D55D0022D56D0032D25
S1130A0057D0042D0FD0052D56D0AB1F012B0AD97A
S1130A10082D54D0092D54D00A2D04D1072323FACC
S1130A200AF3DB0704D440F21341484600F0AAF964
S1130A302A4A7D4308FA0AF35351642002F07EFEE9
S1130A40013EA9D120680323436423895BBA9BB286
S1130A50836440F20113ADF8003023690293E36824
S1130A6001936946237D8DF80C3001F0CDFC04B070
S1130A70BDE8F0871A487AE740F2FF33A5E74FF65E
S1130A80C073A2E740F6FF739FE74FF47F439CE7F0
S1130A904FF6FF7399E70F2397E74FF4404394E72A
S1130AA040F2FF33BBE74FF6C073B8E740F6FF737D
S1130AB0B5E74FF47F43B2E74FF6FF73AFE70F2379
S1130AC0ADE74FF44043AAE7C4530000404105009A
S1130AD000C00040008204000CA000440CA00046AA
S1130AE0009204003254000038B5054601F0BCFD04
S1130AF0044C012801D1013C00D138BD284601F045
S1130B00AFFCF6E7E1930400D0E9000318478368DB
S1130B1000681847C36800681847000038B50D46D8
S1130B20044618B3012824D0022825D0032826D04F
S1130B3004280ED0052825D0831F012B09D90828A5
S1130B4023D0092823D00A2803D10723EB40DB074D
S1130B5004D410484FF4797100F014F930200E4B8E
S1130B600121444301FA05F51D5138BD40F2FF331C
S1130B70ECE74FF6C073E9E740F6FF73E6E74FF49E
S1130B807F43E3E74FF6FF73E0E70F23DEE74FF41D
S1130B904043DBE7325400000CA0004438B50D4656
S1130BA0044618B3012824D0022825D0032826D0CF
S1130BB004280ED0052825D0831F012B09D9082825
S1130BC023D0092823D00A2803D10723EB40DB07CD
S1130BD004D4104840F2134100F0D4F830200E4BF6
S1130BE00121444301FA05F51D5138BD40F2FF339C
S1130BF0ECE74FF6C073E9E740F6FF73E6E74FF41E
S1130C007F43E3E74FF6FF73E0E70F23DEE74FF49C
S1130C104043DBE7325400000CA0004610B501212C
S1130C200446094800F04EF90848012100F04AF949
S1130C30A37820786178B3FA83F35B09042201F086
S1130C40E3FA002010BD00BF4041050000350A0052
S1130C500346007859789B780BB9FFF75FBFFFF71D
S1130C609DBF0346007859789B780BB9FFF796BF70
S1130C70FFF754BF38B5047845782CB3012C26D03F
S1130C80022C27D0032C28D0042C0ED0052C27D0DE
S1130C90A31F012B09D9082C25D0092C25D00A2CF7
S1130CA003D10723EB40DB0704D4114840F22E4163
S1130CB000F068F83022544304F18044012304F521
S1130CC02044AB40A36138BD40F2FF33EAE74FF65E
S1130CD0C073E7E740F6FF73E4E74FF47F43E1E7CF
S1130CE04FF6FF73DEE70F23DCE74FF44043D9E709
S1130CF03254000070B504784578064654B3012C8C
S1130D002BD0022C2CD0032C2DD0042C0ED0052C4F
S1130D102CD0A31F012B09D9082C2AD0092C2AD0A6
S1130D200A2C03D10723EB40DB0704D4134840F219
S1130D30FE3100F027F830235C43114B234405EBCC
S1130D40C305AD00B3782868C0B213B9B0FA80F017
S1130D50400970BD40F2FF33E5E74FF6C073E2E7A8
S1130D6040F6FF73DFE74FF47F43DCE74FF6FF7392
S1130D70D9E70F23D7E74FF44043D4E732540000B8
S1130D800CA01002FEE700000C4B984210D90C4B4B
S1130D90984210D9022201230A490B640A49D1F866
S1130DA0003123F0807343EA0263C1F800317047D5
S1130DB000221346F0E70122FBE700BF0048E801E8
S1130DC00090D0030000C84300400E4038B5114BDA
S1130DD05B68114B00221C46C9B21D798D4202D1B9
S1130DE01D68854212D20132052A03F10803F4D1A9
S1130DF00A4841F23A41FFF7C5FF032205494B680F
S1130E0023F0407343EA02634B6038BD04EBC20233
S1130E105279F3E700000E408C5500009654000010
S1130E201F2810B5044604D9034840F22F11FFF7D8
S1130E30A9FF0120A04010BDF954000038B5074CAB
S1130E4041F67133256C2364FFF7F4FC0021FFF7AE
S1130E50BDFF0DB10023236438BD00BF00000E4068
S1130E60044BDB6B5B0604D4034AD2F8C830002B76
S1130E70FBD1704700300E400000C64308B5FFF7B1
S1130E80EFFF024B5868C0F3014008BD00300E402C
S1130E90044BD3F84421D20703D4D3F840211042A1
S1130EA0FBD1704700400E4038B5054C41F6713314
S1130EB0256C2364FFF78AFF0DB10023236438BD3A
S1130EC000000E4038B5C0F30323013B092B24D89E
S1130ED0DFE803F02A2D2323051619231C20154CC3
S1130EE00023C0F3043513B11846FFF7D1FF04F112
S1130EF0424404F5801405EBC404A400216038BD09
S1130F000D4C0123EDE70D4C1023EAE70C4C4FF494
S1130F108033E6E70B4C0023E3E7BDE838400A489A
S1130F2041F6D711FFF72EBF084C0023D9E7084C30
S1130F300023D6E7B0400E40E0400E40E8400E40AB
S1130F40F0400E4050410E409654000000400E40C8
S1130F50C0400E4008B5C0F30313013B092B60D811
S1130F60DFE803F0050B0F195F5F1F233C532E4B83
S1130F70D3F80001C0F3042008BD2B4BD3F81401AF
S1130F80F8E7294BD3F80001C0F300600130FFF704
S1130F9047FF0138F0E7244BD3F80C01C0F30820D5
S1130FA0EAE7214BD3F80801F8E7204B984209D02F
S1130FB01F4B98420CD041F67B311E48FFF7E2FEEE
S1130FC00020D9E7184BD3F8200100F00F00DEE72A
S1130FD0154BD3F82001C0F30110D8E7164B984203
S1130FE008D003F5B01303F58053984206D041F6B8
S1130FF09F31E2E70C4BD3F82801ECE70A4BD3F816
S11310002801C0F301200430C1E70C4B984205D1FC
S1131010054BD3F8300100F00300ADE741F6AE31E3
S1131020CBE741F6D331C8E700400E4080061600F6
S113103080162E009654000090171A00A009140080
S113104008B5FFF787FF013008BD000000F00F006E
S1131050013808B5072844D8DFE800F0040F194325
S1131060232D4335264BD3F8943003F00703023B7A
S1131070052B3DD8234AD05C08BD214BD3F88030E2
S113108003F00703013B032B34D81F4AF3E71C4B3F
S1131090D3F8843003F00703013B032B2AD81B4AFF
S11310A0E9E7174BD3F8883003F00703013B032B20
S11310B020D8174ADFE7124B1B6F13F0010F0CBF48
S11310C007200920D8E70E4BD3F85C3103F0300336
S11310D0202B11D0302B11D0102B14BF012007204E
S11310E0CAE70C4841F62771FFF74CFE0020C3E71E
S11310F00520C1E70120BFE70420BDE70820BBE7C6
S113110000400E405F550000655500006955000021
S1131110655500009654000038B52C4B984205469E
S11311200AD02B4B984207D02A4B984204D02A4825
S113113041F23A51FFF726FE2846FFF787FF234B7B
S11311409D42044611D0224B9D4212D0214B9D4218
S113115013D1224BD3F8804004F00704042C2DD87B
S1131160DFE804F02A11151D19001C4BD3F8844044
S1131170F2E71A4BD3F88840EEE7174841F2695179
S1131180FFF700FEEAE7BDE83840FFF7B7BBBDE86C
S11311903840FFF7B9BBBDE83840FFF7B2BBFFF7F3
S11311A04DFB0E4B0446D3F80001C0F30060013040
S11311B0FFF736FEB4FBF0F4204638BD064841F292
S11311C0BB51FFF7DFFD0024F6E700BF030020005A
S11311D00500240002001E009654000000400E404A
S11311E038B500F47813B3F5B01F05467FD02ED878
S11311F0B3F5402F69D011D8B3F5802F54D006D859
S113120043B1B3F5003F5AD041F607311AE0B3F5C4
S1131210202FF9D1BDE83840FFF710BBB3F5801F8C
S113122000F0A280B3F5A01F57D0B3F5602FEBD127
S11312305B48FFF70BFF072800F096800928E9D0E8
S113124041F2FC215748FFF79DFD002036E0B3F53D
S1131250381F5AD013D8B3F5001F5FD00AD8B3F59E
S1131260D01F5DD0B3F5F01FCED14F48BDE8384054
S1131270FFF752BFB3F5101FC6D14C48F6E7B3F5DC
S1131280481F57D0B3F5781F00F08280B3F5401F94
S1131290BAD14748FFF740FF464B0446D3F828012C
S11312A0C0F3012004302BE0FFF7C8FA414BD3F818
S11312B00C31C3F308230133B0FBF3F038BDFFF75F
S11312C0BDFA3C4BD3F80831F3E7FFF7B7FA394BD3
S11312D0D3F81431C3F30423EDE73448FFF71CFFBC
S11312E0344BD3F8303103F00303D840E6E72E48FB
S11312F0FFF712FF2F4B0446D3F8200100F00F0034
S1131300FFF78EFDB4FBF0F0D8E72748FFF704FFA2
S1131310284BD3F82031C3F30113E6E72448A5E7AB
S11313202348FFF7F9FE234B0446D3F82801C0F302
S11313300110E5E72048FFF789FE0138072824D883
S113134001A353F820F000BF4B1200008B130000E0
S11313508B1300006F1300008B1300008B1300002D
S11313606913000077130000144B1868A6E7BDE862
S11313703840FFF79FBAFFF761FA0E4BD3F80031FC
S1131380C3F3042303FB000098E741F2333159E728
S1131390FFF754FA04462846FFF752FEB2E700BFAF
S11313A006000E009654000002001E0005002400F2
S11313B00300200000400E40B80032003810002026
S11313C0014B1880704700BF3C100020013838B52D
S11313D00C46032864D8DFE800F002441A2FB1F564
S11313E0007F04D3324842F22571FFF7CBFC314A27
S11313F0C4F30804D2F86838002BFBD12E4A136AD0
S113140023F4FF7323F001032343136238BD7F29C0
S113141004D9274842F23271FFF7B4FC254A04F09C
S11314207F01D2F86038002BFBD1234B1C6924F0D8
S11314307F040C431C61E9E77F2904D91C4842F26C
S11314404D71FFF79FFC1B4A04F07F01D2F864380A
S1131450002BFBD1184B9C6924F07F040C439C6146
S1131460D4E7154DD5F890305B0704D5104842F207
S11314705D71FFF787FC6B6A23F0300343F01003C0
S11314806B62C4F3C311CB1C2A6B0C490F2B01EA0A
S1131490020128BF0F23214341EA03712963B5E701
S11314A0BDE83840024842F27771FFF76BBC00BFD9
S11314B0965400000020C84300400E4000F8FF0F7F
S11314C0022810B50C4604D0144842F28F71FFF77D
S11314D059FC134B5B6A13F0300F1BD0202C16D031
S11314E0302C17D0B4B10D4842F2AA71FFF74AFC70
S11314F00C4B0B4AD2F8901033EA0101FAD15B028B
S11315004ABFD2F8A0000120C0F3802010BD4FF4E0
S11315100003EEE74FF44003EBE700BF96540000EE
S113152000400E40FF33E107022808B50CD129B171
S1131530094B4FF48060C3F8A80059664AB1BDE86E
S113154008400220FFF7BCBF044842F2E071FFF7F5
S113155019FC012008BD00BF00400E409654000055
S113156004282DE9F04704460F4691461FD83D4B09
S11315703D4A13F800A03D4B13F80080F1B93C4BF1
S113158033F810301366012303FA08F8D2F89030C8
S113159013EA080FFAD1B9F1000F5AD00125324AE3
S11315A005FA0AF5D2F890302B42FBD151E0BDE8A0
S11315B0F047304842F27461FFF7E4BB2E4B022837
S11315C033F8106047D1536A13F0300F43D12B4BDB
S11315D0DB6B5A0504D4274842F28361FFF7D2FB40
S11315E0214A536ADB0705D5536A23F0300343F0DD
S11315F010035362224D1C4BA8441E664FEA880810
S1131600D8F80030002BFBD0B9F1000F21D055449D
S1131610AD002B68002BFCD0022C1AD1CFB1124F95
S1131620796A11F0010118D0012220212046FFF728
S11316307BFFD7F89C40012200210220FFF790FF96
S1131640C4F30A010220FFF7C1FE3E662B68002B9B
S1131650FCD0BDE8F0870027CCE72046FFF730FF39
S1131660E7E700BF6D55000000400E4072550000D2
S113167082550000965400007855000000300E405A
S11316808004F210112838B50C460FD000F00F007A
S11316900138072800F2EB80DFE810F02400660030
S11316A09A00E9007D00B400E900C200042912D1C7
S11316B0FFF700F90546A8B10021284600F06AFAB0
S11316C0023C0A2C45D8DFE804F04A473137444449
S11316D044443D0F4D00052904D1664B1D68664BFB
S11316E09D42E9D80025EBE7032005240122114699
S11316F0FFF736FFFFF7A2FB0DB1FFF7B1FB5F4B1E
S11317005C67FFF7C5F80446FFF798F8FFF73CFB62
S1131710FFF7B4FB01462046FFF7C6FB002D5DD161
S113172028460121BDE8384000F034BA5448FFF798
S11317302BFB02200446D9E75148FFF725FB01247F
S11317400320D3E741F6E871BDE838404D48FFF780
S113175019BB41F6ED71F7E701200324C6E7002029
S11317600424C3E70724C5E7062933D14548464D79
S113177042F22C01FFF706FB424842F23C01FFF71C
S113178001FBFFF75BF8FFF7FFFA404B0122C3F8B8
S11317900826032321E006293D4DEDD0013C092C08
S11317A02BD801A353F824F001180000DF17000020
S11317B0ED170000FB170000FB1700008317000063
S11317C0FB170000FB170000FB170000D9170000EF
S11317D0304DE3E72C4DE1E704232B6038BD0122B3
S11317E011460020FFF7BCFE0223F6E70122114652
S11317F01046FFF7B5FE0123EFE742F26701A3E7C6
S11318000023EAE7072904D0092906D042F2F101AE
S11318109AE71A4B00221A67E0E7184B0122FAE70D
S11318204C1E072C1ED8DFE804F0201D1D161D1DBC
S11318300F0403221149D1F85C3123F0300343EA49
S11318400213C1F85C31C9E7012211460420FFF7F5
S113185087FE0122EEE7012211460220FFF780FEF7
S11318600222E7E742F24F116EE70022E2E742F27A
S1131870262169E72C100020002D310100400E4084
S11318800148E8019654000080400E400010C8430F
S113189088400E4084400E4010B504461120FFF7E6
S11318A0D5FB042804D1274842F20F51FFF76AFA06
S11318B0012200210220FFF753FE63781BB9A378AD
S11318C00BB9E37823B11F4842F24B51FFF75AFAA0
S11318D0237C012B04D11B4842F25251FFF752FAE8
S11318E0194A217C536A23F00103022908BF43F0FB
S11318F001035362154B2178C3F8A014637AA188BD
S113190043EAC123D362136BA07A217A03F07F6385
S11319100343E08843EAC02343EAC11303310F2998
S113192028BF0F2143EA01731363A37B617B1B016F
S113193043EA0133E17B0B43217B43EA01435363D5
S113194010BD00BF9654000000400E400000C84384
S113195070B505461120FFF779FB022804D10F4822
S113196042F2CD51FFF70EFA0D4E0E4BB26B2C78AE
S113197013401C436B7844EAC324AB7844EA036401
S1131980EB7844EA0324B36BA34205D0002101227F
S11319900846FFF7E5FDB46370BD00BF9654000030
S11319A000400E4080E4FFF8EFF3108072B67047F9
S11319B000B962B67047EFF31180602383F3118896
S11319C0704780F311887047034BD86B80F0400058
S11319D0C0F38010704700BF00300E4038B542EAB3
S11319E00323B3F5007F05460C463ED019D8B3F562
S11319F0807F36D00AD883B3012B21D01F4840F60C
S1131A008E11FFF7BFF9002213461FE040F20112C6
S1131A109342F3D11A4BD3F824321A0EC3F307437B
S1131A2014E0B3F5407F24D040F20132934210D049
S1131A3040F201229342E1D1114BD3F8283202E063
S1131A400F4BD3F82432C3F30722DBB22B6022609E
S1131A5038BD0B4BD3F82832DFE7094BD3F81C32DF
S1131A60F1E7074BD3F81C32D7E7054BD3F8203204
S1131A70E9E7034BD3F82032CFE700BFB4550000A9
S1131A800081E00F08B5FFF79FFF20B1024AD2F8AA
S1131A90C830002BFBD108BD0000C6431A4B0228F6
S1131AA010B5D3F830320C4612D0032813D00128D5
S1131AB014BFDBB2C3F307231B0323F47042ECB956
S1131AC05AB140F61D111148FFF75CF9002010BD12
S1131AD0C3F30743F0E71B0EEEE70D49CA6E22F489
S1131AE070421343CB660120F1E70949D1F8EC2099
S1131AF022F470421343C1F8EC30F4E7002AF4D026
S1131B0040F62911DFE700BF0081E00FB455000063
S1131B1000300E40F8B504460F46FFF755FF78B382
S1131B20FFF7B0FF174B5B68C3F301439C4227D018
S1131B30154BD3F80061FEF781FE022C05460FD148
S1131B40124BC6F3042606FB00069E4204D9104835
S1131B5040F23161FFF716F902212846FFF7A4F994
S1131B60C4F1020210239340064A13610FB1FFF738
S1131B7089FF2CB921462846BDE8F840FFF794B9FF
S1131B80F8BD00BF00300E4000400E40002D310172
S1131B90B455000013B50246FFF716FFC8B152B999
S1131BA00D4B0191D3F80041FEF748FEC4F3042223
S1131BB0019902FB0002094B1B7843B1084B9A427E
S1131BC005D8022002B0BDE81040FFF7A3BF0020F3
S1131BD0F8E702B010BD00BF00400E406E110020B7
S1131BE0002D31010378134A002B437870B514BFDC
S1131BF004260026002B8378946914BF022500254F
S1131C00002B037924F03F0443EA0403C47814BF8F
S1131C1008210021012C08BF43F0010333432B4367
S1131C200B4393611368417923F4403343EA01433E
S1131C30136070BD00300E40224B4AF6E85210B5D6
S1131C40596B5A639A6FD207FCD41B6C13F00303CD
S1131C501EBF1D4A0124C2F8B44A834204D110B9FC
S1131C60194BC3F8B40A10BD032B00D09BB9431E13
S1131C70012B10D8134A4FF40023D362936FDB0770
S1131C80FCD4136C23F0030343F0010313640D4AE3
S1131C90536A1C03FCD50B4B9A6FD207FCD41A6C05
S1131CA022F0030202431A649A6F12F00102FBD17C
S1131CB00038054C18BF01200129C4F8B40A08BF34
S1131CC05A63D0E700300E400000C6432DE9F04FC0
S1131CD0A0F5E16389B00024B3F5966FCDE9024421
S1131CE0CDE90444CDE9064406468A46934605D91F
S1131CF040F6EE215548FFF745F8A3E0B0F5E16F53
S1131D00534B8CBF0122002249D1D3F81832C3F3BC
S1131D100721DBB2079104934FF416754FF49667CD
S1131D2048E0BBF1000F0ED0D9F85C2022F4FE424B
S1131D3022F00202B6F5E16F42EA012218BF022046
S1131D400243C9F85C20BAF1000F26D020460021D6
S1131D50FFF7A4FE044610B940F64B31CAE701214F
S1131D604046FFF79BFE044610B940F65331C1E7E5
S1131D70384A536EBD4238BF3D4623F4FF73E72D06
S1131D8023F0010328BFE725B6F5E16F18BF43F040
S1131D90010343EA4503536654E0012452E0D3F8B7
S1131DA01832190EC3F30743079104934FF4966551
S1131DB04FF4E167DFF89C90D9F84C400192C4F3EA
S1131DC00174234605A902A8FFF708FED9F8EC30F0
S1131DD0019AC3F30128434606A903A8FFF7FEFDB1
S1131DE0049BF01B079FF91A4143B1FBF5F29918C4
S1131DF02CBF012300238F421ED3EBB9069A039F05
S1131E00D31B4343B3FBF5F3FF182CBF012300237B
S1131E10BA4211D383B9059B029AA3EB020C00FBCF
S1131E200CF0B0FBF5F555192CBF01200020AB4296
S1131E3002D300283FF475AF044840F63C31FEF766
S1131E40A1FF0024204609B0BDE8F08FB45500007E
S1131E500081E00F00300E40334A08B5136FD16C97
S1131E6011F0010F03F0060344D0002B42D01328D5
S1131E7057D9143813288CBF102308232A49013B4F
S1131E80CA6C180322F47F4240EA03231343CB6451
S1131E90264BCA6C1B88C2F303222833013202EB9F
S1131EA0820003EB5303B3FBF0F3C86C013B072B35
S1131EB028BF072320F0EE6040EA036343F4801355
S1131EC0CB641B4BB3F90030002B12DB03F1280069
S1131ED0C0F34E030344500800EB4202B3FBF2F29A
S1131EE00B6D072A28BF072223F0700343EA02126E
S1131EF00A6508BDD16C01F00101194304D1092818
S1131F000FD90A380928B6E7D26CD20702D50BB923
S1131F102728B0E7074840F69131FEF733FF002346
S1131F20ACE70423AAE700BF00300E406A1100208A
S1131F306C110020B45500000C4BD3F8803910B557
S1131F40044633B9012804D9094840F6AF31FEF7F5
S1131F5019FF084A136F23F0070323431367064B43
S1131F60BDE810401888FFF777BF00BF0000C643E4
S1131F70B455000000300E406811002038B55A4BAB
S1131F8002229A639B6B03F00F039342044607D02B
S1131F90564840F64B21FEF7F5FE0025284638BD8D
S1131FA00389C82B04D9514840F65521FEF7EAFEAF
S1131FB0A28823899A4204D94C4840F65621FEF758
S1131FC0E1FEB4F90C30C82B04DD484840F6572133
S1131FD0FEF7D8FE6378012B55D1A388C82B04D90A
S1131FE040F65B214148FEF7CDFEE28842F21073D1
S1131FF09A4204D93D4840F66821FEF7C3FEE388BF
S11320004A2B48D9B3F5FA7F47D340F6C31293421B
S113201094BF4FF000524FF040523349B4F90C00D2
S1132020CB6C23F0405323F001030028A8BF43F0F6
S113203001031343CB64D1F8EC30A28843F440731A
S1132040C1F8EC302A4B1A80CB6E43F08073CB6618
S1132050284BD3F8800900B10420FFF76DFF264B0D
S113206021891980254BB4F90C20A0881A80FFF728
S1132070F3FEA37BA3B1012B22D01C4840F6CE0172
S1132080FEF780FE0FE0022BAFD1A3880A2BACD958
S11320904FF42661A6E70022BFE74FF08052BCE769
S11320A0114B174A9A65012260881146FFF70EFE0C
S11320B0054640B90D4840F69F21FEF763FE6DE7E3
S11320C0094B104AEEE7084AD36B43F48063D363A9
S11320D06078FFF7B1FDA37AA3F120025342534184
S11320E0044AC2F8943759E700300E40B455000052
S11320F0681100200000C6436A1100206C11002002
S113210077402057372110B738B50D46044618B329
S1132110012824D0022825D0032826D004280ED054
S1132120052825D0831F012B09D9082823D0092885
S113213023D00A2803D10723EB40DB0704D410483B
S113214040F21341FEF71EFE30200E4B01214443A2
S113215001FA05F51D5138BD40F2FF33ECE74FF6A7
S1132160C073E9E740F6FF73E6E74FF47F43E3E724
S11321704FF6FF73E0E70F23DEE74FF44043DBE75E
S1132180325400000CA0004638B50D46044618B37E
S1132190012824D0022825D0032826D004280ED0D4
S11321A0052825D0831F012B09D9082823D0092805
S11321B023D00A2803D10723EB40DB0704D41048BB
S11321C04FF47971FEF7DEFD30200E4B01214443BC
S11321D001FA05F51D5138BD40F2FF33ECE74FF627
S11321E0C073E9E740F6FF73E6E74FF47F43E3E7A4
S11321F04FF6FF73E0E70F23DEE74FF44043DBE7DE
S1132200325400000CA00044F8B50D4616461F4693
S11322100446D8B301283CD002283DD003283ED040
S113222004280ED005283DD0831F012B09D9082886
S11322303BD009283BD00A2803D10723EB40DB0716
S113224004D4274840F21D11FEF79CFD26B129460F
S113225020467FB3FFF758FF3020604300F18040F1
S1132260072D00F5204028D84368AA000F2191408B
S113227023EA010306FA02F21343436076BB2946BC
S113228020463FB3BDE8F840FFF73EBF40F2FF33BE
S1132290D4E74FF6C073D1E740F6FF73CEE74FF4AF
S11322A07F43CBE74FF6FF73C8E70F23C6E74FF42E
S11322B04043C3E7FFF768FFCEE7A5F10803826850
S11322C09B000F21994022EA010206FA03F313430B
S11322D08360D3E7BDE8F840FFF756BFF8BD00BF01
S11322E017560000F8B506460C4615469ABB40F250
S11322F00F11BDE8F8402F48FEF744BD2E4B9E4217
S113230001D12E483DE02B4840F22911FEF73AFD59
S11323103AE0032F42D02A4B3CE06FEAC50505445E
S11323202C44B4FBF0F4013C0AD5224840F2751168
S1132330FEF728FD1F484FF4BB71FEF723FD02E0B2
S1132340B4F5007FF6D233689B0702D5002C08BF92
S113235001243461F8BD03F00307036823F44073D8
S11323600360FFF721FB326882EA072303F440731A
S113237053403360FFF71CFB34B9124B9E42BDD16E
S11323801148FEF72DFF044633689A07C1D5032F81
S113239004D00E4B53F827309C4204D805484FF420
S11323A0AF71FEF7EFFC0A4BD85D6843B5D140F23C
S11323B06F119EE77B56000000C4004000920400A9
S11323C0EC56000000C0004000820400E05600000B
S11323D0F856000038B50A4B984204460D4608D01A
S11323E003F58063984204D0064840F28F11FEF74B
S11323F0C9FC04F1424404F580146401256038BD2D
S113240000C000407B56000038B5124B9842044689
S11324100D4608D003F58063984204D00E484FF46B
S1132420D271FEF7AFFC002323640C4BE3636A789C
S1132430630103F1844382F001025A60D5E9011279
S113244020462B7BFFF74EFF29782046BDE8384015
S1132450FFF7C0BF00C000407B560000FFFF07002D
S11324607D4B98422DE9F0410CD003F580639842EE
S113247023D07A4840F2FB11FEF784FC6FF003008E
S1132480BDE8F081764B9968402405254FF0000E95
S11324900327426B12F4C06F15D095050FD5FD22AA
S11324A05A7009221A700022026493F9011001295A
S11324B000D15A7093F90100E2E76A4BE3E754054F
S11324C0EFD5FE22ECE71E78082E00F2C080DFE88C
S11324D006F0051B3B45626D8F97B7004C880A8850
S11324E0E1060AD5120A02F0060242F0F0020121C6
S11324F01970C26241600120C2E702F0FE02A70720
S113250048BF42F00102F2E7160605D58022C263F5
S11325104FF608721A8061E05206ECD54A88C4630B
S1132520D60604D502221A700B78C362E3E7920739
S113253064D507221A701B7901EBC3010B89012BA7
S1132540D9D108234360D6E71606DFD45206D2D584
S11325504A88C463960751D51F709AE74C880A8845
S1132560E50643BF120A02F0060242F0F00202F04E
S1132570FE02670709D51C7901EBC40142F0010290
S11325800989012904BF082141600421197001232C
S11325904360C262AFE71606B8D45606ABD54A8884
S11325A0C46352072AD507221A70A4E71A795E88F1
S11325B001EBC20CBCF80880B04511D80132D2B28C
S11325C01A714E88A3F802E016F0040FC4D1F6077E
S11325D002D4012A7FF65DAF08221A700223B1E704
S11325E0DCF80420711C5980925DC2620622DBE78C
S11325F016068BD456067FF57EAFC4631D7048E77C
S113260094067FF578AF1A795C88C56901EBC2013D
S11326100A89A24281BF4968661C5E800D555988AB
S11326208A42D9D90424012A446004D9013A914246
S113263001D1082242601A78092A3FF434AF5AE7DC
S1132640D2057FF558AF4FF48072C26329E74FF685
S113265009321A8027E700BF00C000407B56000003
S1132660701100207C11002038B5264B9842044696
S11326700D4641D003F5806398423AD022484FF486
S11326805771FEF77FFB002D39D11F4840F25D31B1
S1132690FEF778FB1B4B9C4224D11C4BA268D0074D
S11326A044BF202262606A88910701D5298931B329
S11326B0520701D52A8A12B34FF480721A6000229D
S11326C01A719D60C0236360E368DB050FD4104B6F
S11326D0E363236C43F4FC6323642046BDE8384081
S11326E0FFF7BEBE0B4B9C4209D10B4BD6E7E36907
S11326F0EAE70029F9D1C8E70029CED1C5E76FF090
S1132700030038BD00C000407B560000701100205B
S1132710FFFF070000C400407C110020022838B5E8
S113272004460D4603D911484C21FEF72BFB6B7967
S11327301F2B03D90D484F21FEF724FBAB786A7891
S11327409B0143EA82032A781343EA7843EA02139B
S11327502A7943EAC2236A7943EA0233AA79043420
S113276043EA42432401024A135138BDFC56000097
S113277000200440014B1860704700BF00008442F1
S1132780427801790378002A827870B514BF042650
S11327900026002AC27814BF10250025002A427999
S11327A04FEA023242EA012242EA0302837914BF69
S11327B020240024002BC37942EA034343EA06039E
S11327C0027A43EA050314BF4FF400410021234376
S11327D0002A14BF4FF4003200220B431343014A72
S11327E0136070BD002004402DE9F04180460E4680
S11327F01F46154622B931484FF4A171FEF7C2FABB
S11328001EB92F48FEF7ECFC0646402F2AD009D803
S1132810A7B1202F1CD0BDE8F041284840F289110F
S1132820FEF7B0BA602FF6D1B5EB960F04D9234862
S113283040F28311FEF7A6FA04241DE0B5EB161F3F
S113284004D91E484FF4BA71FEF79CFA102413E021
S1132850B5EBD60F04D9194840F27911FEF792FA74
S1132860082409E00624B6FBF4F3AB4204D213486F
S11328704FF4BF71FEF786FA6C43610801EB46160C
S1132880B6FBF4F40F4E203CB6EBC40F4FEAC4057C
S113289004D20A484FF4D071FEF774FAD8F8003025
S11328A023F06003C8F80030D8F8003035401F43E7
S11328B0C8F80070C8F81450BDE8F08160570000F3
S11328C040410500F8FF7F0070B506460C461546EA
S11328D022B90D484FF42271FEF754FA1CB90B4883
S11328E0FEF77EFC04460A4B6D00013CB4FBF5F494
S11328F013EA04234FEA042504D0034840F2A52137
S1132900FEF740FA756170BD605700004041050054
S1132910070080FF38B50E4B984204460D4610D090
S113292003F5806398420CD003F58063984208D085
S113293003F58063984204D0064840F2BE21FEF7B6
S113294021FAEB435B0003F00A03E360E56038BD62
S1132950000001406057000038B51E4B1E4D9842E0
S113296004460ED0A8420CD003F50063984208D068
S113297003F58063984204D0184840F22E41FEF7D4
S113298001FA40F6AA63E36041F2050200232360E2
S11329906260134AA3606361E364A26423666367AD
S11329A0A367E3670B4B9C4209D0AC4207D003F505
S11329B000639C4203D003F580639C4201D1002351
S11329C023650023AC42A36502D0064A944200D199
S11329D0E36538BD00000140000401406057000079
S11329E0F9FF0100000C014038B5264B984204461B
S11329F00D4610D003F5806398420CD003F5806334
S1132A00984208D003F58063984204D01E4840F2EF
S1132A10EF21FEF7B7F92046FFF79EFFAB7C1BB111
S1132A20236843F080432360EB7C1BB12B7D43F090
S1132A308003A3652A8A6B7B1343EA89134363608B
S1132A402B7BD5E901122046FFF7CEFE6B7D1BB12F
S1132A50236843F480332360AB7DEA7D1B071205B2
S1132A6002F4E00203F0E04313432366636F23F0B0
S1132A7030036367626F2B7E134363672B78E360D5
S1132A8038BD00BF000001406057000038B52A4B34
S1132A90984204460D4610D003F5806398420CD04A
S1132AA003F58063984208D003F58063984204D00C
S1132AB022484FF45671FEF765F92046FFF74CFFA4
S1132AC0A97B2A8A2368002942F0010214BF4FF42B
S1132AD08061002113430B432A7D23602368002A6D
S1132AE014BF4FF00052002213432360AB7C1BB190
S1132AF0EB7C43F08003A3652B7B43F4805363603A
S1132B00D5E901122046FFF7DFFE6B7B0BB11023E2
S1132B10E3606B7D1BB1236843F480332360AB7D9A
S1132B20EA7D1B07120503F0E04302F4E0021343BD
S1132B3023662B78E36038BD000001406057000035
S1132B4003691B06FCD5C069C0B2704703695A0605
S1132B50FCD5416303699B06FCD5C069C0B27047CC
S1132B6003695B06FCD54163704700007FB5094BE0
S1132B706A4603F11006154618685968144603C4DA
S1132B800833B3422246F7D12846FFF7F7F900206D
S1132B9004B070BDC657000013B502230024684674
S1132BA000948DF804408DF80530FFF71BF820469B
S1132BB002B010BD70B5164B86B001AA03F1100621
S1132BC0154618685968144603C40833B3422246AC
S1132BD0F7D11B8823800F4BD3F8B42012030ED4F3
S1132BE0D3F8B830C3F308030B48ADF80A30FDF747
S1132BF067FE2846FEF750FE002006B070BD074B66
S1132C001B884FF6FF72934208BF4FF4A673EBE79D
S1132C10D65700000081E00F00F049020001E00FE8
S1132C2007B5084B18680190202301A88DF80430DB
S1132C30FEF78EFE6420FEF7C3FB002003B05DF8B0
S1132C4004FB00BFE857000010B50C480C4C6FF0B3
S1132C500402A02112F0800FD3B21BBF03F00F03B4
S1132C60043BA3181B1802F101020CBF83F80013E4
S1132C701976332AEED1002010BD00BF00ED00E02C
S1132C8000E100E010B50446FEF78EFE024B1C6026
S1132C90FEF78EFE002010BD8811002010B5FEF74F
S1132CA083FE034B1C68FEF783FE204610BD00BF65
S1132CB08811002007B530B9CDE90012FFF7EEFF07
S1132CC0DDE9001230B1436823B1006803B05DF858
S1132CD004EB1847232003B05DF804FB30B51C4611
S1132CE085B058B9CDE90012FFF7D8FFDDE900122D
S1132CF004B903AC20B9232005B030BD03B903AC3B
S1132D008568002DF7D023460068A847F4E7002023
S1132D107047FEE74FF400534B60002070470120DA
S1132D2070470020704707B5002001AB0190FFF702
S1132D30D5FF0198002808BF4FF0FF3003B05DF8BD
S1132D4004FB000010B500201446FFF7B3FF18B1D0
S1132D500248BF21FEF716F8204610BDEC570000CC
S1132D60034B1868002380680222194601F034BA24
S1132D704010002080F82010704790F82000704721
S1132D802DE9F8434FF00008044617461D46C3F8E2
S1132D9000804E1E2B68BB4206D32B68002B0CBF51
S1132DA01B200020BDE8F883FEF705FED4F814903C
S1132DB0FEF707FEB9F1000FEFD0A269E368D35C18
S1132DC006F8013FE068E3690130984208BF4046D5
S1132DD0E060FEF7F0FD6369013B6361FEF7F1FD1E
S1132DE06368204698472B6801332B60D2E770B59F
S1132DF004460568FFF752FF844202D10020FFF722
S1132E0041FF95F92130002B11DB03F01F015B0911
S1132E109B0003F1604303F5614301228A40C3F838
S1132E208021C3F88020BFF34F8FBFF36F8F00233F
S1132E30C4E90033C4E90433A3602846AB68BDE8A1
S1132E407040184790F8203070B505460C468E182F
S1132E509BB1B44213D023780A2B03D12B680D21E4
S1132E60284698472B6814F8011B28469847F0E732
S1132E702B6814F8011B28469847A642F8D1002075
S1132E8070BD0000F8B51F46536805460C4616464B
S1132E90002B36D09368002B35D024220021204605
S1132EA001F07AF97368A361B368E361337B84F852
S1132EB02030069B6360079B2760A36096F900306F
S1132EC0124A84F821306A60114AAA60114A2A61C0
S1132ED0114A6A61002B114A2C60EA600CDB03F092
S1132EE01F015B099B0003F1604303F56143012269
S1132EF08A40C3F880211A602846FFF7C3FE0020E9
S1132F00F8BD2220FCE72120FAE700BF452E00008F
S1132F10812D0000752D00007B2D0000EF2D000099
S1132F204269C06982422CBF002001207047000022
S1132F3038B54269C3699A4204460D4604D30A4827
S1132F404FF4AF71FDF71EFF2369A269D55462697E
S1132F50236901326261E26901339342236104BF50
S1132F600023236138BD00BF6E580000426AD36C51
S1132F7043F00403D3647047426A10B504461369EE
S1132F805B06FCD500231A4694F82D1094F82C0007
S1132F90FFF73AF900231A4694F82F1094F82E00FC
S1132FA0FFF732F994F8343093B100231A4694F8B9
S1132FB0311094F83000FFF727F994F834303BB11E
S1132FC0002394F8331094F832001A46FFF71CF9E2
S1132FD0606A0021FFF79EFCA06A0021FDF772FFE2
S1132FE0002010BD08B5406AFFF7BAFD002008BDF7
S1132FF02DE9FF410A9D1C46504B01930126504B7D
S11330000093CDE902664F4B90460A462946FFF7E6
S113301039FF0746002856D123686B626368AB62A8
S1133020637A85F82D30237A85F82C30E37A85F895
S11330302F30A37A85F82E30637B85F83130237BDB
S113304085F83030E37B85F83330A37B85F8323064
S11330503D483146FDF736FF3C483146FDF732FF27
S1133060617A207A33460422FFF7CEF833460222EF
S1133070E17AA07AFFF7C8F860683146FDF722FFCD
S113308088F8007041462068FFF7AEFC2268536F51
S113309043F003035367936F617C23F4F85323F0E5
S11330A01F030B43217C43EA0123032193675167E8
S11330B085F8347098F81830202B2BD007D803B338
S11330C0102B09D02327384604B0BDE8F081302BFB
S11330D0F8D185F8341002E085F834603E460023C8
S11330E00222617B207BFFF78FF82368A27CDA67DA
S11330F05A6E42F004025A665A6F42F010025A673E
S11331005EB92068C36C43F00403C3640521FFF770
S113311001FCD8E7022385F83430E17BA07B00234F
S11331200422FFF771F82368E17CDA6F42EA012296
S1133130DA675A6F42F020025A67E2E7792F0000FB
S11331406D2F0000E52F00004041050000350A0006
S1133150436A1B691B0610B5044610D5FFF7E0FE51
S113316040B1606AFFF7ECFC01462046BDE8104020
S1133170FFF7DEBE626AD36C23F00403D36410BD90
S113318000230B707047000030B50F4C4161236879
S1133190ABB92060836011E0891A9A6841611D46C9
S11331A02AB113465A698A42F6D955B11A46A8601B
S11331B01346836013B15A69511A596130BD002511
S11331C0F0E72060F5E700BFA411002038B500F057
S11331D025FA094B094A196839B113684C69C51AAB
S11331E0AC4204D323441B1A4B61106003E0001B60
S11331F0002310604B6138BDA41100209011002001
S113320038B50F4B0F4D1C682B685B6902201C44BA
S113321000F032FA204600F007FA0B492A6800232E
S11332200B70D088800702D501230B7038BD9268DB
S1133230002AFBD050690344012BF2D9F6E700BF02
S113324090110020A41100209811002070B59DF861
S113325014500571002516468560049ABDF818506F
S1133260C580C0E90336044602600D4629B94161B0
S11332700BB11146984796B13546FEF79CFB0646BE
S1133280FFF7A4FF29462046FFF77EFF054B1B6886
S1133290A34201D1FFF7B4FF3046FEF792FB0020B2
S11332A070BD00BFA41100200C490B6800227BB143
S11332B083420AD183687AB1936083681BB15A69E7
S11332C041690A445A61002070471A469B68EEE738
S11332D00028EFD0022070470B60EEE7A411002015
S11332E070B5154EFEF767FB34780546FCB9134BF1
S11332F01C60134B1C60134B1C8000F049F9012027
S113330000F0BAF900F0F6F90F4B0246186020B944
S11333102846FEF756FB232070BD23460B4840F297
S1133320E73100F07FFD0A4B186001233370284613
S1133330FEF747FB0020EFE78C110020A4110020CA
S1133340901100209A110020A011002018FCFFFF0A
S11333509411002038B50C46054698B191B100236C
S11333600B70FEF728FB084B1B6801210BB1227878
S11333701AB1FEF726FB002038BDAB4214BF9B6890
S11333802170F3E72220F7E7A4110020F0B587B0FD
S11333901F4600230D4616468DF817300446A0B18B
S11333A00DF11701FFF7D6FF9DF817207AB9BDF884
S11333B0343002939DF830302946CDE9007320461D
S11333C03346FFF743FF07B0F0BD2220FBE703209D
S11333D0F9E7F0B587B01F4600230D4616468DF871
S11333E017300446A8B10DF11701FFF7B3FF9DF89C
S11333F0173083B9BDF8343002939DF830302A4633
S1133400CDE90073294633462046FFF71FFF07B076
S1133410F0BD2220FBE70220F9E70000044B1B6803
S113342058434FF47A73B0FBF3F00130704700BF98
S1133430A011002000B58BB001238DF80F30FFF7E9
S1133440EDFF0023CDE900330146074A0DF10F03D8
S113345004A8FFF79BFF18B99DF80F30002BFBD190
S11334600BB05DF804FB00BF81310000C2072DE9F9
S1133470F84F04460BD5414A138801339BB213809D
S1133480FFF7A4FE3E4B1B680BB1FFF7B9FEA30781
S113349071D5DFF8F49000F0C1F8D9F80070064651
S11334A0C71BFEF788FA4FF0000805464246C3469C
S11334B0334B1C6814B16369BB4219D9314B0021E9
S11334C0B8F1010F197005D122B1D288022A08BFC0
S11334D083F80080002C4AD06369C9F80060DB1BC4
S11334E06361FFF78DFE2846BDE8F84FFEF769BA21
S11334F0C9F8006023463A465969914209D81879B7
S113350094F804C0844588BF1C469B68521A002B5B
S1133510F2D12846FEF755FA6569C4F814B0FEF7EF
S11335204AFA82462046FFF7BFFE5046FEF749FAA4
S113353023694BB1FEF73FFA216982462046FFF723
S113354023FE5046FEF73DFAE36813B12168204696
S1133550984700F063F835447F1B82460744FEF722
S11335602AFA08F10108054622465646A0E7022039
S113357000F090F8B7E7BDE8F88F00BF9A1100207B
S1133580A41100209C1100209011002000207047FD
S113359010B51E4B86B01868596803AA03C2197A7D
S11335A0D3F8090011700024B3F80D200190DB7BDF
S11335B01748ADF8082001218DF80A30FDF782FC88
S11335C08DF80C40FFF7E2FF8DF8100003A8FFF719
S11335D0D7F801A901208DF80440FFF79FF80D4AA0
S11335E0536A23F4FF6323F00703536240F2FF732B
S11335F0136201209460FFF7BDF8074B4FF080423F
S1133600C3F880211A6006B010BD00BFE658000060
S1133610A00914000020044000E100E0014B986878
S1133620704700BF00200440114A9368516D9269AD
S1133630520704D4CA1A032A01D88B420DD1C21AE4
S1133640022A98BFD81C0A4BB0F1FF3F38BF01389B
S113365058655A6A42F004025A62064A137833B132
S113366003490B6D43F002030B650023137070478D
S1133670002004403E1000208207054A00F00103A8
S1133680516A48BF43F004030B435362704700BFC1
S113369000200440820700F0010309D5074A0121F4
S11336A0117007490A6D22F0030243F004030A650E
S11336B003494A6A22EA03034B6270473E10002022
S11336C00020044010B5FEF776F9094A93690446D0
S11336D0590703F0010003F0070348BF40F002005C
S11336E01362FFF7C3FE2046BDE81040FEF769B938
S11336F00020044008B50448FDF772FD0346FFF7B7
S113370045FF23FA00F008BDA009140008B5FCF732
S1133710EFFEFCF73BFFFCF740FFFCF747FFBDE87B
S11337200840FCF744BF08B5FCF742FFFCF741FF33
S1133730FCF740FFBDE80840FCF73DBF10B5044668
S1133740FDF7A6F84FF47A735C43B0FBF3F3064835
S1133750B0FBF3F0B4FBF0F0032804D9BDE810404B
S1133760800800F005B810BD40420F0000000000C2
S1133770013800D0FCE7704770B54FF0FF0C4CF4F3
S1133780E06C1CEA11541DBF1CEA135594EA0C0F9B
S113379095EA0C0F00F0DEF82C4481EA030621EAD6
S11337A04C5123EA4C5350EA013518BF52EA033511
S11337B041F4801143F4801338D0A0FB02CE4FF0C3
S11337C00005E1FB02E506F00042E0FB03E54FF0F3
S11337D00006E1FB03569CF0000F18BF4EF0010EEB
S11337E0A4F1FF04B6F5007F64F5407404D25FEAE7
S11337F04E0E6D4146EB060642EAC62141EA55519A
S11338004FEAC52040EA5E504FEACE2EB4F1FD0CDB
S113381088BFBCF5E06F1ED8BEF1004F08BF5FEA59
S1133820500E50F1000041EB045170BD06F000460B
S113383046EA010140EA020081EA0301B4EB5C04B8
S1133840C2BFD4EB0C0541EA045170BD41F48011B0
S11338504FF0000E013C00F3AB8014F1360FDEBFD5
S1133860002001F0004170BDC4F10004203C35DAB1
S11338700C341BDC04F11404C4F1200500FA05F334
S113388020FA04F001FA05F240EA020001F00042D5
S113389021F0004110EBD37021FA04F642EB06014B
S11338A05EEA430E08BF20EAD37070BDC4F10C0475
S11338B0C4F1200500FA04F320FA05F001FA04F239
S11338C040EA020001F0004110EBD37041F1000125
S11338D05EEA430E08BF20EAD37070BDC4F1200530
S11338E000FA05F24EEA020E20FA04F301FA05F298
S11338F043EA020321FA04F001F0004121FA04F240
S113390020EA020000EBD3705EEA430E08BF20EA0F
S1133910D37070BD94F0000F0FD101F00046400049
S113392041EB010111F4801F08BF013CF7D041EACB
S1133930060195F0000F18BF704703F000465200CF
S113394043EB030313F4801F08BF013DF7D043EAA0
S11339500603704794EA0C0F0CEA135518BF95EA56
S11339600C0F0CD050EA410618BF52EA4306D1D1DD
S113397081EA030101F000414FF0000070BD50EAFC
S1133980410606BF1046194652EA430619D094EA86
S11339900C0F02D150EA013613D195EA0C0F05D170
S11339A052EA03361CBF104619460AD181EA0301C4
S11339B001F0004141F0FE4141F470014FF000007C
S11339C070BD41F0FE4141F4780170BD81F00041C9
S11339D002E000BF83F0004330B54FEA41044FEAF0
S11339E0430594EA050F08BF90EA020F1FBF54EA8B
S11339F0000C55EA020C7FEA645C7FEA655C00F027
S1133A00E2804FEA5454D4EB5555B8BF6D420CDDF7
S1133A102C4480EA020281EA030382EA000083EA7A
S1133A20010180EA020281EA0303362D88BF30BD1A
S1133A3011F0004F4FEA01314FF4801C4CEA113170
S1133A4002D0404261EB410113F0004F4FEA0333CF
S1133A504CEA133302D0524263EB430394EA050F5A
S1133A6000F0A780A4F10104D5F1200E0DDB02FAC9
S1133A700EFC22FA05F2801841F1000103FA0EF25D
S1133A80801843FA05F359410EE0A5F120050EF123
S1133A90200E012A03FA0EFC28BF4CF0020C43FA54
S1133AA005F3C01851EBE37101F0004507D54FF061
S1133AB0000EDCF1000C7EEB00006EEB0101B1F5B1
S1133AC0801F1BD3B1F5001F0CD349085FEA3000F7
S1133AD04FEA3C0C04F101044FEA445212F5800F02
S1133AE080F09A80BCF1004F08BF5FEA500C50F19F
S1133AF0000041EB045141EA050130BD5FEA4C0C82
S1133B00404141EB0101013C28BFB1F5801FE9D2DE
S1133B1091F0000F04BF01460020B1FA81F308BF01
S1133B202033A3F10B03B3F120020CDA0C3208DDCD
S1133B3002F1140CC2F10C0201FA0CF021FA02F1A8
S1133B400CE002F11402D8BFC2F1200C01FA02F118
S1133B5020FA0CFCDCBF41EA0C019040E41AA2BF3D
S1133B6001EB0451294330BD6FEA04041F3C1CDA05
S1133B700C340EDC04F11404C4F1200220FA04F025
S1133B8001FA02F340EA030021FA04F345EA0301CF
S1133B9030BDC4F10C04C4F1200220FA02F001FA91
S1133BA004F340EA0300294630BD21FA04F0294613
S1133BB030BD94F0000F83F4801306BF81F48011AC
S1133BC00134013D4EE77FEA645C18BF7FEA655C1F
S1133BD029D094EA050F08BF90EA020F05D054EAF1
S1133BE0000C04BF1946104630BD91EA030F1EBFF6
S1133BF00021002030BD5FEA545C05D140004941FA
S1133C0028BF41F0004130BD14F580043CBF01F5EC
S1133C10801130BD01F0004545F0FE4141F47001D2
S1133C204FF0000030BD7FEA645C1ABF19461046AD
S1133C307FEA655C1CBF0B46024650EA013406BFAE
S1133C4052EA033591EA030F41F4002130BD00BF6D
S1133C5090F0000F04BF0021704730B54FF480642A
S1133C6004F132044FF000054FF0000150E700BFAB
S1133C7090F0000F04BF0021704730B54FF480640A
S1133C8004F1320410F0004548BF40424FF00001F7
S1133C903EE700BF42004FEAE2014FEA31014FEA3A
S1133CA002701FBF12F07F4393F07F4F81F0605189
S1133CB0704732F07F4208BF704793F07F4F04BFD4
S1133CC041F40021704730B54FF4607401F00045B1
S1133CD021F000411CE700BF50EA010208BF704711
S1133CE030B54FF000050AE050EA010208BF704702
S1133CF030B511F0004502D5404261EB41014FF46B
S1133D00806404F132045FEA915C3FF4D8AE4FF072
S1133D1003025FEADC0C18BF03325FEADC0C18BF55
S1133D20033202EBDC02C2F1200300FA03FC20FAA6
S1133D3002F001FA03FE40EA0E0021FA02F11444F3
S1133D40BDE600BF4A0011D212F5001211D20DD502
S1133D506FF47873B3EB62520ED44FEAC12343F08D
S1133D60004343EA505323FA02F070474FF0000037
S1133D70704750EA013002D14FF0FF3070474FF0E6
S1133D80000070474FEA4102B2F1E04324BFB3F5AB
S1133D90001CDCF1FE5C0DD901F0004C4FEAC002BE
S1133DA04CEA5070B2F1004F40EB830008BF20F0A2
S1133DB00100704711F0804F21D113F13872BCBF5C
S1133DC001F00040704741F480114FEA5252C2F1B1
S1133DD01802C2F1200C10FA0CF320FA02F018BFFA
S1133DE040F001004FEAC1234FEAD32303FA0CFC4D
S1133DF040EA0C0023FA02F34FEA4303CCE77FEADC
S1133E00625307D150EA01331EBF4FF0FE4040F425
S1133E104000704701F0004040F0FE4040F40000D4
S1133E20704700BF53B94AB9002908BF00281CBF16
S1133E304FF0FF314FF0FF3000F074B9ADF1080CD2
S1133E406DE904CE00F006F8DDF804E0DDE90223B4
S1133E5004B070472DE9F047089D04468E46002BB8
S1133E604DD18A42944669D9B2FA82F252B101FA2A
S1133E7002F3C2F1200120FA01F10CFA02FC41EA3A
S1133E80030E94404FEA1C48210CBEFBF8F61FFABF
S1133E908CF708FB16E341EA034306FB07F199425A
S1133EA00AD91CEB030306F1FF3080F01F8199420D
S1133EB040F21C81023E63445B1AA4B2B3FBF8F0E7
S1133EC008FB103344EA034400FB07F7A7420AD96E
S1133ED01CEB040400F1FF3380F00A81A74240F296
S1133EE007816444023840EA0640E41B00261DB101
S1133EF0D4400023C5E900433146BDE8F0878B4236
S1133F0009D9002D00F0EF800026C5E900013046F4
S1133F103146BDE8F087B3FA83F6002E4AD18B42CE
S1133F2002D3824200F2F980841A61EB0303012078
S1133F309E46002DE0D0C5E9004EDDE702B9FFDE64
S1133F40B2FA82F2002A40F09280A1EB0C014FEA0F
S1133F501C471FFA8CFE0126200CB1FBF7F307FB6C
S1133F60131140EA01410EFB03F0884208D91CEB0F
S1133F70010103F1FF3802D2884200F2CB804346AC
S1133F80091AA4B2B1FBF7F007FB101144EA01448B
S1133F900EFB00FEA64508D91CEB040400F1FF311A
S1133FA002D2A64500F2BB800846A4EB0E0440EA08
S1133FB003409CE7C6F12007B34022FA07FC4CEA11
S1133FC0030C20FA07F401FA06F31C43F9404FEA04
S1133FD01C4900FA06F3B1FBF9F8200C1FFA8CFE19
S1133FE009FB181140EA014108FB0EF0884202FA6D
S1133FF006F20BD91CEB010108F1FF3A80F088802E
S1134000884240F28580A8F102086144091AA4B2EA
S1134010B1FBF9F009FB101144EA014100FB0EFE6B
S11340208E4508D91CEB010100F1FF346CD28E459A
S11340306AD90238614440EA0840A0FB0294A1EB2B
S11340400E01A142C846A64656D353D05DB1B3EB88
S1134050080261EB0E0101FA07F722FA06F3F140B8
S11340601F43C5E9007100263146BDE8F087C2F15F
S11340702003D8400CFA02FC21FA03F391400143D7
S11340804FEA1C471FFA8CFEB3FBF7F007FB103610
S11340900B0C43EA064300FB0EF69E4204FA02F4BC
S11340A008D91CEB030300F1FF382FD29E422DD90F
S11340B0023863449B1B89B2B3FBF7F607FB163344
S11340C041EA034106FB0EF38B4208D91CEB0101C4
S11340D006F1FF3816D28B4214D9023E6144C91A44
S11340E046EA004638E72E46284605E70646E3E654
S11340F01846F8E64B45A9D2B9EB020864EB0C0E5E
S11341000138A3E74646EAE7204694E74046D1E76C
S1134110D0467BE7023B614432E7304609E764441A
S1134120023842E7704700BF08B5074B044613B195
S11341300021AFF30080054B1868836A03B19847E8
S11341402046FEF7E6FD00BF00000000F85800001E
S113415070B50D4D0D4C641BA4100026A64209D168
S11341600B4D0C4C01F092F8641BA4100026A642DF
S113417005D170BD55F8043B98470136EEE755F874
S1134180043B98470136F2E7A4100020A410002055
S1134190A4100020A810002002440346934200D13A
S11341A0704703F8011BF9E70FB40A4B13B51C68F9
S11341B024B1A36913B9204600F0EEF905AB049AC3
S11341C0A1680193204600F0C5FB02B0BDE8104091
S11341D004B07047401000202DE9F7431D465D4BA5
S11341E01F6804460E46904627B1BB6913B938468A
S11341F000F0D2F9584B9C4267D17C68B8F1020FA9
S113420006D0B8F1010F00F29F80002DC0F29C800F
S1134210636EDB0705D4A389980502D4A06D00F072
S113422059FA2146384600F023F9616B41B104F193
S11342304403994202D0384600F0BCFA0023636379
S11342400023A3616360A389190603D52169384655
S113425000F0B0FAA38923F44A6323F00303B8F10E
S1134260020FA3816CD001AB6A462146384600F0A8
S113427033FAA3891843A081002D30D1009D28462C
S113428000F090FA0646002855D1DDF80090A945C3
S11342904AD14FF0FF350022A26004F147022260A8
S11342A022610122B4F90C306261626E43F00203B0
S11342B0D207A38105D413F4007F02D1A06D00F0CE
S11342C00AFA284603B0BDE8F083244B9C4201D18E
S11342D0BC6893E7224B9C4208BFFC688EE7002E23
S11342E0CDD0BB6913B9384600F056F9B8F1010FC7
S11342F008BFA389266004BF43F00103A381A289F8
S113430012F00803C4E904651CD0D30741BF00239D
S11343106D42A360A56158BFA560656E15F00105E7
S113432015D112F4007FC8E7484600F03BFA064670
S11343300028AED04D46A38943F08003A381D0E783
S11343400025A8E7A360E8E74FF0FF35B9E70025AB
S1134350B7E700BF401000201C5900003C59000082
S1134360FC5800008A892DE9F041054610070C46E7
S113437058D44B68002B05DC0B6C002B02DC0020AE
S1134380BDE8F081E66A002EF9D0002312F48052D1
S11343902F682B6032D0606DA3895A0705D56368F6
S11343A0C01A636B0BB1236CC01A00230246E66A81
S11343B0216A2846B047431CA38906D129681D29D0
S11343C02CD82A4ACA40D60728D500226260D904CC
S11343D02269226004D5421C01D12B6803B96065AF
S11343E0616B2F600029CAD004F14403994202D0C2
S11343F0284600F0DFF900206063C1E7216A012349
S11344002846B047411CC7D12B68002BC4D01D2BB4
S113441001D0162B01D12F60B1E7A38943F04003EB
S1134420A381ADE70F69002FA9D093070E6808BFD9
S11344304B690F6018BF0023A6EB07088B60B8F127
S1134440000F9CDD216AA66A43463A462846B047D7
S1134450002806DCA38943F04003A3814FF0FF301A
S11344608EE70744A8EB0008E9E700BF01004020FD
S113447038B50B6905460C4613B90025284638BDE6
S113448018B183690BB900F087F8144B9C421BD117
S11344906C68B4F90C30002BEFD0626ED00704D4F2
S11344A0990502D4A06D00F015F928462146FFF7BE
S11344B059FF636EDA070546E0D4A3899B05DDD472
S11344C0A06D00F008F9D9E7054B9C4201D1AC6816
S11344D0DFE7044B9C4208BFEC68DAE71C59000094
S11344E03C590000FC580000002310B50446C0E904
S11344F00033C0E90433836081814366C2818361F0
S1134500194608225C30FFF747FE054B6362054BF2
S1134510A362054BE362054B2462236310BD00BF15
S1134520FD4E00001F4F0000574F00007B4F00005E
S1134530014900F0AFB800BF7144000070B56822B3
S11345404D1E55430E4605F1740100F07FF90446F3
S113455040B10021C0E900160C30A06005F16802EA
S1134560FFF71AFE204670BD014800F0B3B800BF43
S1134570A9110020014800F0AEB800BFA911002025
S1134580014800F0A7B800BFAA110020014800F0BC
S1134590A2B800BFAA11002010B50446FFF7F0FF2F
S11345A0A3691BB1BDE81040FFF7F0BFC4E91233A3
S11345B02365134B134A1B68A262A34204BF012361
S11345C0A361204600F020F86060204600F01CF84B
S11345D0A060204600F018F80022E0600421606822
S11345E0FFF782FFA06801220921FFF77DFFE06841
S11345F002221221FFF778FF0123A361D2E700BF53
S1134600F858000031450000F8B50746FFF7ACFF45
S11346101E4B1E68B36913B93046FFF7BDFF483619
S1134620D6E90134013B03D533680BB33668F7E7A9
S1134630B4F90C50D5B9164BE36004F15800656623
S113464000F047F8FFF796FFC4E90155C4E90455A3
S11346502560A5610822294604F15C00FFF79CFD52
S1134660C4E90D55C4E912552046F8BD6834D9E7AC
S113467004213846FFF762FF044630600028D5D194
S1134680FFF778FF0C233B60EEE700BFF85800000B
S11346900100FFFF2DE9F8430646884600F148046F
S11346A00027D4E90195B9F1010905D52468002C46
S11346B0F7D13846BDE8F883AB89012B07D9B5F9A2
S11346C00E30013303D029463046C04707436835CE
S11346D0E9E770477047704770B50E46B1F90E10A0
S11346E0002996B014461D4608DAB6F90C300022AB
S11346F02A601A0610D44FF480630EE06A4600F074
S113470023FD0028F1DB019A02F47042A2F5005364
S11347105A425A412A60EEE740230020236016B033
S113472070BD00008B8973B59D0706460C4607D5FE
S113473004F14703236023610123636102B070BD68
S113474001AB6A46FFF7C8FF00990546304600F002
S11347507DF848B9B4F90C309A05EFD423F003037B
S113476043F00203A381E3E70D4BB362A389206006
S113477043F08003A381009B6361019B20615BB1D3
S1134780B4F90E10304600F0F1FC28B1A38923F0EF
S1134790030343F00103A381A0890543A581CDE769
S11347A031450000024B0146186800F04FB800BFC5
S11347B04010002037B5002944D051F8043C019042
S11347C0002BA1F10404B8BFE41800F041FD1E4A17
S11347D00198136833B96360146003B0BDE83040D6
S11347E000F03CBDA34208D9256861198B4201BF82
S11347F019685B6849192160EDE71A465B680BB1DB
S1134800A342FAD911685518A5420BD12468214452
S11348105418A3421160E0D11C685B6853602144C2
S11348201160DAE702D90C230360D6E72568611921
S11348308B4204BF19685B68636004BF4919216037
S11348405460CAE703B030BDAC110020F8B5CD1CEC
S113485025F0030508350C2D38BF0C25002D064620
S113486001DBA94203D90C2333600020F8BD00F01A
S1134870EFFC21490A6814469CB9204F3B6823B9D0
S11348802146304600F02AFB38602946304600F0C5
S113489025FB431C23D10C233360304600F0DEFC9F
S11348A0E3E723685B1B17D40B2B03D923601C4459
S11348B0256004E06368A2420CBF0B60536030467D
S11348C000F0CCFC04F10B00231D20F00700C21AF9
S11348D0CCD01B1AA350C9E722466468CCE7C41C99
S11348E024F00304A042E3D0211A304600F0F6FA83
S11348F00130DDD1CFE700BFAC110020B0110020A2
S11349009368013B002B10B4936008DA9469A342C6
S113491001DB0A2903D15DF8044B00F033BB1368B3
S1134920581C1060197008465DF8044B7047F8B5C0
S113493006460F461446D518AC4201D1002007E0C4
S113494014F8011B3A463046FFF7DAFF431CF3D153
S1134950F8BD00002DE9F04F0D469DB01446984671
S1134960064618B183690BB9FFF716FE894B9D42C1
S11349701BD175686B6ED90705D4AB899A0502D42F
S1134980A86DFFF7A7FEAB891B0701D52B69EBB90F
S11349902946304600F05AFBC0B16B6EDC070ED5D9
S11349A04FF0FF301DB0BDE8F08F7B4B9D4201D12D
S11349B0B568DFE7794B9D4208BFF568DAE7AB8954
S11349C09805EDD4A86DFFF786FEE9E70023099367
S11349D020238DF82930CDF80C803023DFF8C081F6
S11349E08DF82A304FF0010923469A4613F8012B1B
S11349F00AB1252AF9D1BAEB040B0BD05B46224647
S1134A0029463046FFF793FF013000F0AA80099A47
S1134A105A4409929AF80030002B00F0A280002337
S1134A204FF0FF32CDE905230AF1010A04930793FD
S1134A308DF853301A935446052214F8011B584834
S1134A4000F0B6FB049AD8B9D10644BF20238DF8F0
S1134A505330130744BF2B238DF853309AF800309A
S1134A602A2B15D0079A544600204FF00A0C2146F1
S1134A7011F8013B303B092B4ED9B0B1079214E039
S1134A80A0EB080309FA03F313430493A246D2E705
S1134A90039B191D1B680391002BBBBF5B4242F0B3
S1134AA0020207930793B8BF049223782E2B0CD1EC
S1134AB063782A2B35D1039B1A1D1B680392002BA4
S1134AC0B8BF4FF0FF3302340593DFF8E4A0217838
S1134AD00322504600F06CFB40B14023A0EB0A00D7
S1134AE003FA00F0049B03430134049314F8011BFC
S1134AF02C488DF82810062200F05AFB00283FD0DD
S1134B00294B1BBB039B073323F007030833039391
S1134B10099B3B44099367E70CFB02320C460120D6
S1134B20A5E700230134059319464FF00A0C2046EB
S1134B3010F8012B303A092A03D9002BC5D005916E
S1134B40C3E70CFB012104460123F0E703AB009308
S1134B502A46164B04A93046AFF300800746781C5A
S1134B60D6D16B6ED90705D4AB899A0502D4A86D4A
S1134B70FFF7B1FDAB895B063FF512AF099811E76A
S1134B8003AB00932A46094B04A9304600F080F891
S1134B90E4E700BF1C5900003C590000FC58000029
S1134BA05C59000066590000000000002F49000015
S1134BB0625900002DE9F047164699468A680B6948
S1134BC0DDF820809342B8BF1346336091F8432048
S1134BD007460C460AB1013333602368990642BF85
S1134BE0336802333360256815F0060506D104F1F5
S1134BF0190AE36832689B1AAB4226DC94F8432016
S1134C00131E226818BF012392062BD404F1430219
S1134C1049463846C04701301ED02368E5683268EB
S1134C2003F00603042B08BFAD1AA36822690CBF66
S1134C3025EAE57500259342C4BF9B1AED180026AA
S1134C401A34B5421AD1002008E0012352464946DD
S1134C503846C047013003D14FF0FF30BDE8F0873C
S1134C600135C6E7E1185A1C302081F8430022447C
S1134C7094F8451082F843100233C7E70123224613
S1134C8049463846C0470130E6D00136D9E700002E
S1134C902DE9FF470F7E0C9D782F914680460C46E8
S1134CA09A4601F1430207D8622F0AD8002F00F078
S1134CB0D880582F00F0A38004F1420584F8427094
S1134CC03AE0A7F16303152BF6D801A151F823F0BC
S1134CD0294D00003D4D0000B94C0000B94C0000C6
S1134CE0B94C0000B94C00003D4D0000B94C000027
S1134CF0B94C0000B94C0000B94C0000494E00000A
S1134D006D4D00002B4E0000B94C0000B94C000062
S1134D106B4E0000B94C00006D4D0000B94C000012
S1134D20B94C0000334E00002B681A1D1B682A6022
S1134D3004F1420584F842300123A3E02068296885
S1134D40060601F104030AD50E682B60002E03DA6F
S1134D502D23764284F843305E480A2319E00E6816
S1134D602B6010F0400F18BF36B2EFE72B682068B5
S1134D70191D2960010601D51E6802E04606FBD50F
S1134D801E8854486F2F0CBF08230A23002184F87F
S1134D9043106568A560002DA2BF216821F00401BD
S1134DA021600EB9002D4DD01546B6FBF3F103FB7F
S1134DB01167C75D05F8017D3746BB420E46F4D93D
S1134DC0082B0BD12368DE0708D523696168994253
S1134DD0DEBF302305F8013C05F1FF35521B22618B
S1134DE0CDF800A04B4603AA21464046FFF7E2FE59
S1134DF001304CD14FF0FF3004B0BDE8F0873548A6
S1134E0081F845702968236851F8046B29601D06F0
S1134E1014D5DF0744BF43F0200323601EB9236881
S1134E2023F0200323601023B0E7236843F020031A
S1134E3023607823284884F84530E3E7590648BFBF
S1134E40B6B2E6E71546BBE72B6826686169181D0C
S1134E50286035061B6801D5196002E07006FBD591
S1134E601980002323611546BAE72B681A1D2A60AE
S1134E701D6862680021284600F09AF908B1401BB9
S1134E80606063682361002384F84330A8E72369E2
S1134E902A4649464046D0470130ABD023689B0799
S1134EA013D4E068039B9842B8BF1846A4E70123D3
S1134EB0324649464046D04701309BD00135E3682D
S1134EC003995B1AAB42F2DCEBE7002504F1190607
S1134ED0F5E700BF6D5900007E59000038B5064D56
S1134EE00023044608462B60FBF714FD431C02D143
S1134EF02B6803B1236038BDB411002010B50C46F3
S1134F00B1F90E1000F0B0F90028ABBF636DA389AE
S1134F101B1823F48053ACBF6365A38110BD2DE936
S1134F20F0411F468B89DB0505460C46164605D520
S1134F30B1F90E100223002200F028F9A389B4F974
S1134F400E1023F48053A38132463B462846BDE825
S1134F50F04100F069B810B50C46B1F90E1000F03C
S1134F6015F9431CA38915BF606523F4805343F4EA
S1134F708053A38118BFA38110BDB1F90E1000F0B6
S1134F80D3B80000F8B50E461446054618B1836937
S1134F900BB9FFF701FB214B9C422BD16C68A36931
S1134FA0A360A3891A072FD523696BB323692068EB
S1134FB0C01A6369F6B28342374604DC21462846A8
S1134FC0FFF756FA30BBA368013BA36023685A1C61
S1134FD022601E7063690130834204D0A389DB0719
S1134FE006D50A2E04D121462846FFF741FA88B98E
S1134FF03846F8BD0A4B9C4201D1AC68CFE7094B57
S11350009C4208BFEC68CAE72146284600F01EF817
S11350100028CBD04FF0FF37EAE700BF1C5900004F
S11350203C590000FC58000038B5074D04460846BA
S1135030114600222A601A46FDF784FE431C02D161
S11350402B6803B1236038BDB4110020324B70B516
S11350501D6806460C4625B1AB6913B92846FFF70F
S11350609BFA2E4B9C420FD16C68A389B4F90C2097
S113507019072CD4DD0611D40923336042F0400310
S1135080A3814FF0FF303EE0254B9C4201D1AC6838
S1135090EBE7244B9C4208BFEC68E6E7580712D5BF
S11350A0616B41B104F14403994202D03046FFF7E9
S11350B081FB00236363A38923F02403A3810023DA
S11350C0636023692360A38943F00803A3812369F0
S11350D04BB9A38903F42073B3F5007F03D02146B1
S11350E03046FFF71FFBA089B4F90C2010F0010330
S11350F00AD00023A36063695B42A361236943B9B7
S113510010F08000BAD170BD810758BF6369A360F5
S1135110F4E70020F7E700BF401000201C5900000E
S11351203C590000FC58000038B5064D00230446E5
S113513008462B60FDF7EBFD431C02D12B6803B13D
S1135140236038BDB411002038B5074D0023044650
S1135150084611462B60FDF7DDFD431C02D12B6888
S113516003B1236038BD00BFB411002038B5064D2B
S11351700023044608462B60FDF7D1FD431C02D1F1
S11351802B6803B1236038BDB411002038B5074D36
S113519004460846114600222A601A46FDF7C1FD5E
S11351A0431C02D12B6803B1236038BDB411002025
S11351B001F0FF01102A2BDB10F0070F08D010F8C4
S11351C0013B013A8B422DD010F0070F42B3F6D1C8
S11351D0F0B441EA012141EA014122F007047FF0E1
S11351E000070023F0E80256083C85EA010586EA38
S11351F0010685FA47F5A3FA87F586FA47F6A5FA74
S113520087F68EB9EED1F0BC01F0FF0102F007027F
S113521032B110F8013B013A83EA010313B1F8D12A
S11352200020704701387047002D06BF354603380B
S1135230073815F0010F07D1013015F4807F02BF44
S1135240013015F4C03F0130F0BC0138704700BF95
S11352500148FFF73FBA00BFA81100200148FFF73B
S11352603ABA00BFA811002038B5074D04460846D5
S1135270114600222A601A46FDF755FD431C02D14F
S11352802B6803B1236038BDB4110020F8B500BF0A
S1135290F8BC08BC9E467047F8B500BFF8BC08BC13
S11352A09E4670472E2E2F69326373706D2E6300F5
S11352B05475726E696E67204C454430206F6E21C0
S11352C00D0A005475726E696E67204C4544312096
S11352D06F6E210D0A0057656C636F6D6520746FE6
S11352E0207468652049324353504D206578616DC0
S11352F0706C65206170706C69636174696F6E0DA8
S11353000A00256C64003B256C64200D0A002E2ED7
S11353102F6175746F67656E2F736C5F696F73743B
S11353207265616D5F696E69745F75736172745FD4
S1135330696E7374616E6365732E6300050000000B
S11353400000000000C20100000500000010000081
S113535000000000000000000000014000420400C2
S1135360000000010002000300001E1E0C0D0000DE
S11353703011002020000000000100001C1000205B
S11353801D0C0000510C0000630C0000750C0000A3
S1135390F50C00001F1000201D0C0000510C000033
S11353A0630C0000750C0000F50C00000500000003
S11353B00000000040420F00050100000000000052
S11353C000000000433A2F53696C69636F6E4C61AF
S11353D062732F53696D706C696369747953747562
S11353E064696F2F76352F646576656C6F706572AE
S11353F02F73646B732F6765636B6F5F73646B5F8D
S113540073756974652F76332E322F706C617466F0
S11354106F726D2F6472697665722F69326373706F
S11354206D2F7372632F736C5F69326373706D2EAB
S11354306300633A5C73696C69636F6E6C61627379
S11354405C73696D706C696369747973747564698C
S11354506F5C76355C646576656C6F7065725C73E1
S1135460646B735C6765636B6F5F73646B5F7375A9
S11354706974655C76332E325C706C6174666F722D
S11354806D5C656D6C69625C696E635C656D5F67BC
S113549070696F2E6800433A2F53696C69636F6EAD
S11354A04C6162732F53696D706C696369747953CD
S11354B0747564696F2F76352F646576656C6F70CB
S11354C065722F73646B732F6765636B6F5F7364AF
S11354D06B5F73756974652F76332E322F706C6130
S11354E074666F726D2F656D6C69622F7372632FB2
S11354F0656D5F636D752E6300633A5C73696C69F7
S1135500636F6E6C6162735C73696D706C696369FF
S1135510747973747564696F5C76355C64657665FB
S11355206C6F7065725C73646B735C6765636B6FDF
S11355305F73646B5F73756974655C76332E325C7C
S1135540706C6174666F726D5C656D6C69625C69C8
S11355506E635C656D5F636F6D6D6F6E2E680004C6
S113556003020B050C0302010A0302060A090703DE
S113557001050806020004000001400004000100C7
S113558010000002800008000200200040787D0125
S113559000000000005A620200010000C0CF6A004F
S11355A002000000809FD50002010000002D31019F
S11355B002020000433A2F53696C69636F6E4C61B9
S11355C062732F53696D706C696369747953747570
S11355D064696F2F76352F646576656C6F706572BC
S11355E02F73646B732F6765636B6F5F73646B5F9B
S11355F073756974652F76332E322F706C617466FF
S11356006F726D2F656D6C69622F7372632F656D98
S11356105F656D752E6300433A2F53696C69636F40
S11356206E4C6162732F53696D706C696369747930
S113563053747564696F2F76352F646576656C6F66
S11356407065722F73646B732F6765636B6F5F7321
S1135650646B5F73756974652F76332E322F706CAB
S11356606174666F726D2F656D6C69622F737263FE
S11356702F656D5F6770696F2E6300433A2F53691E
S11356806C69636F6E4C6162732F53696D706C69E2
S11356906369747953747564696F2F76352F646503
S11356A076656C6F7065722F73646B732F676563B7
S11356B06B6F5F73646B5F73756974652F76332EDC
S11356C0322F706C6174666F726D2F656D6C6962D8
S11356D02F7372632F656D5F6932632E6300000060
S11356E080841E00404B4C00809FD50080841E00A7
S11356F040548900002D310108091108433A2F5301
S1135700696C69636F6E4C6162732F53696D706C61
S1135710696369747953747564696F2F76352F647E
S11357206576656C6F7065722F73646B732F676534
S1135730636B6F5F73646B5F73756974652F763326
S11357402E322F706C6174666F726D2F656D6C698B
S1135750622F7372632F656D5F727463632E6300CF
S1135760433A2F53696C69636F6E4C6162732F53B4
S1135770696D706C696369747953747564696F2FAA
S113578076352F646576656C6F7065722F73646B04
S1135790732F6765636B6F5F73646B5F7375697495
S11357A0652F76332E322F706C6174666F726D2F95
S11357B0656D6C69622F7372632F656D5F757361BC
S11357C072742E630000000108070F000A00C8006D
S11357D02000A000010000000000A00068010A20D1
S11357E00706020A0407000000020700433A2F5389
S11357F0696C69636F6E4C6162732F53696D706C71
S1135800696369747953747564696F2F76352F648D
S11358106576656C6F7065722F73646B732F676543
S1135820636B6F5F73646B5F73756974652F763335
S11358302E322F706C6174666F726D2F7365727681
S11358406963652F696F73747265616D2F73726319
S11358502F736C5F696F73747265616D5F726574C9
S113586061726765745F737464696F2E6300433A91
S11358702F53696C69636F6E4C6162732F53696D4A
S1135880706C696369747953747564696F2F7635C4
S11358902F646576656C6F7065722F73646B732FFC
S11358A06765636B6F5F73646B5F73756974652F92
S11358B076332E322F706C6174666F726D2F736540
S11358C072766963652F696F73747265616D2F7386
S11358D072632F736C5F696F73747265616D5F754A
S11358E06172742E630001000000050000000002D4
S11358F0000003000000000044100020000000002D
S11359000000000000000000000000000000000093
S11359100000000000000000000000000000000083
S11359200000000000000000000000000000000073
S11359300000000000000000000000000000000063
S11359400000000000000000000000000000000053
S1135950000000000000000000000000232D302B98
S11359602000686C4C00656667454647003031325C
S113597033343536373839414243444546003031B3
S11359803233343536373839616263646566000012
S10B5990BCA7FF7F0100000029
S113599800C40040020502041111000000000000C8
S11359A8606701000000000000C400400308010310
S11359B809010000C0EA210100F04902C0EA2101FE
S11359C800800000B8110020C0EA2101FFFF010097
S11359D844100020000000001C5900003C5900003D
S11359E8FC58000000000000000000000000000057
S11359F8000000000000000000000000000000009B
S1135A08000000000000000000000000000000008A
S1135A18000000000000000000000000000000007A
S1135A28000000000000000000000000000000006A
S10F5A3800000000310100000D0100001E
S9030809EB
